{
  "_format": "hh3-artifact-1",
  "contractName": "ChronoVault",
  "sourceName": "contracts/ChronoVault.sol",
  "abi": [
    {
      "inputs": [
        {
          "internalType": "address",
          "name": "_feeRecipient",
          "type": "address"
        }
      ],
      "stateMutability": "nonpayable",
      "type": "constructor"
    },
    {
      "inputs": [
        {
          "internalType": "address",
          "name": "owner",
          "type": "address"
        }
      ],
      "name": "OwnableInvalidOwner",
      "type": "error"
    },
    {
      "inputs": [
        {
          "internalType": "address",
          "name": "account",
          "type": "address"
        }
      ],
      "name": "OwnableUnauthorizedAccount",
      "type": "error"
    },
    {
      "inputs": [],
      "name": "ReentrancyGuardReentrantCall",
      "type": "error"
    },
    {
      "inputs": [
        {
          "internalType": "address",
          "name": "token",
          "type": "address"
        }
      ],
      "name": "SafeERC20FailedOperation",
      "type": "error"
    },
    {
      "anonymous": false,
      "inputs": [
        {
          "indexed": true,
          "internalType": "uint256",
          "name": "vaultId",
          "type": "uint256"
        },
        {
          "indexed": true,
          "internalType": "address",
          "name": "creator",
          "type": "address"
        },
        {
          "indexed": false,
          "internalType": "uint256",
          "name": "amount",
          "type": "uint256"
        }
      ],
      "name": "EmergencyWithdraw",
      "type": "event"
    },
    {
      "anonymous": false,
      "inputs": [
        {
          "indexed": true,
          "internalType": "address",
          "name": "previousOwner",
          "type": "address"
        },
        {
          "indexed": true,
          "internalType": "address",
          "name": "newOwner",
          "type": "address"
        }
      ],
      "name": "OwnershipTransferred",
      "type": "event"
    },
    {
      "anonymous": false,
      "inputs": [
        {
          "indexed": true,
          "internalType": "uint256",
          "name": "vaultId",
          "type": "uint256"
        },
        {
          "indexed": true,
          "internalType": "address",
          "name": "creator",
          "type": "address"
        },
        {
          "indexed": false,
          "internalType": "string",
          "name": "name",
          "type": "string"
        },
        {
          "indexed": false,
          "internalType": "address",
          "name": "tokenAddress",
          "type": "address"
        },
        {
          "indexed": false,
          "internalType": "uint256",
          "name": "amount",
          "type": "uint256"
        },
        {
          "indexed": false,
          "internalType": "uint256",
          "name": "unlockTimestamp",
          "type": "uint256"
        },
        {
          "indexed": false,
          "internalType": "bool",
          "name": "useBlockNumber",
          "type": "bool"
        }
      ],
      "name": "VaultCreated",
      "type": "event"
    },
    {
      "anonymous": false,
      "inputs": [
        {
          "indexed": true,
          "internalType": "uint256",
          "name": "vaultId",
          "type": "uint256"
        },
        {
          "indexed": true,
          "internalType": "address",
          "name": "signer",
          "type": "address"
        },
        {
          "indexed": false,
          "internalType": "uint256",
          "name": "currentSignatures",
          "type": "uint256"
        }
      ],
      "name": "VaultSigned",
      "type": "event"
    },
    {
      "anonymous": false,
      "inputs": [
        {
          "indexed": true,
          "internalType": "uint256",
          "name": "vaultId",
          "type": "uint256"
        }
      ],
      "name": "VaultUnlocked",
      "type": "event"
    },
    {
      "anonymous": false,
      "inputs": [
        {
          "indexed": true,
          "internalType": "uint256",
          "name": "vaultId",
          "type": "uint256"
        },
        {
          "indexed": true,
          "internalType": "address",
          "name": "recipient",
          "type": "address"
        },
        {
          "indexed": false,
          "internalType": "uint256",
          "name": "amount",
          "type": "uint256"
        }
      ],
      "name": "VaultWithdrawn",
      "type": "event"
    },
    {
      "inputs": [],
      "name": "MAX_SIGNERS",
      "outputs": [
        {
          "internalType": "uint256",
          "name": "",
          "type": "uint256"
        }
      ],
      "stateMutability": "view",
      "type": "function"
    },
    {
      "inputs": [],
      "name": "MIN_BLOCK_LOCK_TIME",
      "outputs": [
        {
          "internalType": "uint256",
          "name": "",
          "type": "uint256"
        }
      ],
      "stateMutability": "view",
      "type": "function"
    },
    {
      "inputs": [],
      "name": "MIN_LOCK_TIME",
      "outputs": [
        {
          "internalType": "uint256",
          "name": "",
          "type": "uint256"
        }
      ],
      "stateMutability": "view",
      "type": "function"
    },
    {
      "inputs": [
        {
          "internalType": "uint256",
          "name": "vaultId",
          "type": "uint256"
        }
      ],
      "name": "canUnlock",
      "outputs": [
        {
          "internalType": "bool",
          "name": "",
          "type": "bool"
        }
      ],
      "stateMutability": "view",
      "type": "function"
    },
    {
      "inputs": [
        {
          "internalType": "string",
          "name": "name",
          "type": "string"
        },
        {
          "internalType": "address[]",
          "name": "signers",
          "type": "address[]"
        },
        {
          "internalType": "uint8",
          "name": "requiredSignatures",
          "type": "uint8"
        },
        {
          "internalType": "bool",
          "name": "useBlockNumber",
          "type": "bool"
        },
        {
          "internalType": "address",
          "name": "tokenAddress",
          "type": "address"
        },
        {
          "internalType": "uint256",
          "name": "amount",
          "type": "uint256"
        },
        {
          "internalType": "uint256",
          "name": "unlockTimestamp",
          "type": "uint256"
        },
        {
          "internalType": "uint256",
          "name": "unlockBlockHeight",
          "type": "uint256"
        }
      ],
      "name": "createVault",
      "outputs": [
        {
          "internalType": "uint256",
          "name": "",
          "type": "uint256"
        }
      ],
      "stateMutability": "payable",
      "type": "function"
    },
    {
      "inputs": [
        {
          "internalType": "uint256",
          "name": "vaultId",
          "type": "uint256"
        }
      ],
      "name": "emergencyWithdraw",
      "outputs": [],
      "stateMutability": "nonpayable",
      "type": "function"
    },
    {
      "inputs": [],
      "name": "feeRecipient",
      "outputs": [
        {
          "internalType": "address",
          "name": "",
          "type": "address"
        }
      ],
      "stateMutability": "view",
      "type": "function"
    },
    {
      "inputs": [
        {
          "internalType": "address",
          "name": "signer",
          "type": "address"
        }
      ],
      "name": "getSignerVaults",
      "outputs": [
        {
          "internalType": "uint256[]",
          "name": "",
          "type": "uint256[]"
        }
      ],
      "stateMutability": "view",
      "type": "function"
    },
    {
      "inputs": [],
      "name": "getStats",
      "outputs": [
        {
          "internalType": "uint256",
          "name": "totalVaultsCount",
          "type": "uint256"
        },
        {
          "internalType": "uint256",
          "name": "totalValueLocked",
          "type": "uint256"
        },
        {
          "internalType": "uint256",
          "name": "activeVaults",
          "type": "uint256"
        }
      ],
      "stateMutability": "view",
      "type": "function"
    },
    {
      "inputs": [
        {
          "internalType": "address",
          "name": "user",
          "type": "address"
        }
      ],
      "name": "getUserVaults",
      "outputs": [
        {
          "internalType": "uint256[]",
          "name": "",
          "type": "uint256[]"
        }
      ],
      "stateMutability": "view",
      "type": "function"
    },
    {
      "inputs": [
        {
          "internalType": "uint256",
          "name": "vaultId",
          "type": "uint256"
        }
      ],
      "name": "getVault",
      "outputs": [
        {
          "components": [
            {
              "internalType": "uint256",
              "name": "id",
              "type": "uint256"
            },
            {
              "internalType": "string",
              "name": "name",
              "type": "string"
            },
            {
              "internalType": "address",
              "name": "creator",
              "type": "address"
            },
            {
              "internalType": "address[]",
              "name": "signers",
              "type": "address[]"
            },
            {
              "internalType": "uint8",
              "name": "requiredSignatures",
              "type": "uint8"
            },
            {
              "internalType": "address",
              "name": "tokenAddress",
              "type": "address"
            },
            {
              "internalType": "uint256",
              "name": "amount",
              "type": "uint256"
            },
            {
              "internalType": "uint256",
              "name": "unlockTimestamp",
              "type": "uint256"
            },
            {
              "internalType": "uint256",
              "name": "unlockBlockHeight",
              "type": "uint256"
            },
            {
              "internalType": "bool",
              "name": "useBlockNumber",
              "type": "bool"
            },
            {
              "internalType": "bool",
              "name": "isUnlocked",
              "type": "bool"
            },
            {
              "internalType": "bool",
              "name": "isWithdrawn",
              "type": "bool"
            },
            {
              "internalType": "uint256",
              "name": "currentSignatures",
              "type": "uint256"
            },
            {
              "internalType": "uint256",
              "name": "createdAt",
              "type": "uint256"
            }
          ],
          "internalType": "struct ChronoVault.VaultInfo",
          "name": "",
          "type": "tuple"
        }
      ],
      "stateMutability": "view",
      "type": "function"
    },
    {
      "inputs": [
        {
          "internalType": "uint256",
          "name": "vaultId",
          "type": "uint256"
        }
      ],
      "name": "getVaultSigningStatus",
      "outputs": [
        {
          "internalType": "uint256",
          "name": "currentSignatures",
          "type": "uint256"
        },
        {
          "internalType": "uint256",
          "name": "requiredSignatures",
          "type": "uint256"
        },
        {
          "internalType": "bool",
          "name": "canUnlockNow",
          "type": "bool"
        },
        {
          "internalType": "bool",
          "name": "isUnlocked",
          "type": "bool"
        }
      ],
      "stateMutability": "view",
      "type": "function"
    },
    {
      "inputs": [
        {
          "internalType": "uint256",
          "name": "vaultId",
          "type": "uint256"
        },
        {
          "internalType": "address",
          "name": "user",
          "type": "address"
        }
      ],
      "name": "hasUserSigned",
      "outputs": [
        {
          "internalType": "bool",
          "name": "",
          "type": "bool"
        }
      ],
      "stateMutability": "view",
      "type": "function"
    },
    {
      "inputs": [
        {
          "internalType": "uint256",
          "name": "vaultId",
          "type": "uint256"
        },
        {
          "internalType": "address",
          "name": "signer",
          "type": "address"
        }
      ],
      "name": "isVaultSigner",
      "outputs": [
        {
          "internalType": "bool",
          "name": "",
          "type": "bool"
        }
      ],
      "stateMutability": "view",
      "type": "function"
    },
    {
      "inputs": [],
      "name": "nextVaultId",
      "outputs": [
        {
          "internalType": "uint256",
          "name": "",
          "type": "uint256"
        }
      ],
      "stateMutability": "view",
      "type": "function"
    },
    {
      "inputs": [],
      "name": "owner",
      "outputs": [
        {
          "internalType": "address",
          "name": "",
          "type": "address"
        }
      ],
      "stateMutability": "view",
      "type": "function"
    },
    {
      "inputs": [],
      "name": "penaltyFee",
      "outputs": [
        {
          "internalType": "uint256",
          "name": "",
          "type": "uint256"
        }
      ],
      "stateMutability": "view",
      "type": "function"
    },
    {
      "inputs": [],
      "name": "platformFee",
      "outputs": [
        {
          "internalType": "uint256",
          "name": "",
          "type": "uint256"
        }
      ],
      "stateMutability": "view",
      "type": "function"
    },
    {
      "inputs": [],
      "name": "renounceOwnership",
      "outputs": [],
      "stateMutability": "nonpayable",
      "type": "function"
    },
    {
      "inputs": [
        {
          "internalType": "address",
          "name": "newRecipient",
          "type": "address"
        }
      ],
      "name": "setFeeRecipient",
      "outputs": [],
      "stateMutability": "nonpayable",
      "type": "function"
    },
    {
      "inputs": [
        {
          "internalType": "uint256",
          "name": "newFee",
          "type": "uint256"
        }
      ],
      "name": "setPenaltyFee",
      "outputs": [],
      "stateMutability": "nonpayable",
      "type": "function"
    },
    {
      "inputs": [
        {
          "internalType": "uint256",
          "name": "newFee",
          "type": "uint256"
        }
      ],
      "name": "setPlatformFee",
      "outputs": [],
      "stateMutability": "nonpayable",
      "type": "function"
    },
    {
      "inputs": [
        {
          "internalType": "uint256",
          "name": "vaultId",
          "type": "uint256"
        }
      ],
      "name": "signVault",
      "outputs": [],
      "stateMutability": "nonpayable",
      "type": "function"
    },
    {
      "inputs": [
        {
          "internalType": "address",
          "name": "",
          "type": "address"
        },
        {
          "internalType": "uint256",
          "name": "",
          "type": "uint256"
        }
      ],
      "name": "signerVaults",
      "outputs": [
        {
          "internalType": "uint256",
          "name": "",
          "type": "uint256"
        }
      ],
      "stateMutability": "view",
      "type": "function"
    },
    {
      "inputs": [],
      "name": "totalVaults",
      "outputs": [
        {
          "internalType": "uint256",
          "name": "",
          "type": "uint256"
        }
      ],
      "stateMutability": "view",
      "type": "function"
    },
    {
      "inputs": [
        {
          "internalType": "address",
          "name": "newOwner",
          "type": "address"
        }
      ],
      "name": "transferOwnership",
      "outputs": [],
      "stateMutability": "nonpayable",
      "type": "function"
    },
    {
      "inputs": [
        {
          "internalType": "address",
          "name": "",
          "type": "address"
        },
        {
          "internalType": "uint256",
          "name": "",
          "type": "uint256"
        }
      ],
      "name": "userVaults",
      "outputs": [
        {
          "internalType": "uint256",
          "name": "",
          "type": "uint256"
        }
      ],
      "stateMutability": "view",
      "type": "function"
    },
    {
      "inputs": [
        {
          "internalType": "uint256",
          "name": "",
          "type": "uint256"
        }
      ],
      "name": "vaults",
      "outputs": [
        {
          "internalType": "uint256",
          "name": "id",
          "type": "uint256"
        },
        {
          "internalType": "string",
          "name": "name",
          "type": "string"
        },
        {
          "internalType": "address",
          "name": "creator",
          "type": "address"
        },
        {
          "internalType": "uint8",
          "name": "requiredSignatures",
          "type": "uint8"
        },
        {
          "internalType": "address",
          "name": "tokenAddress",
          "type": "address"
        },
        {
          "internalType": "uint256",
          "name": "amount",
          "type": "uint256"
        },
        {
          "internalType": "uint256",
          "name": "unlockTimestamp",
          "type": "uint256"
        },
        {
          "internalType": "uint256",
          "name": "unlockBlockHeight",
          "type": "uint256"
        },
        {
          "internalType": "bool",
          "name": "useBlockNumber",
          "type": "bool"
        },
        {
          "internalType": "bool",
          "name": "isUnlocked",
          "type": "bool"
        },
        {
          "internalType": "bool",
          "name": "isWithdrawn",
          "type": "bool"
        },
        {
          "internalType": "uint256",
          "name": "currentSignatures",
          "type": "uint256"
        },
        {
          "internalType": "uint256",
          "name": "createdAt",
          "type": "uint256"
        }
      ],
      "stateMutability": "view",
      "type": "function"
    },
    {
      "inputs": [
        {
          "internalType": "uint256",
          "name": "vaultId",
          "type": "uint256"
        },
        {
          "internalType": "address payable",
          "name": "recipient",
          "type": "address"
        }
      ],
      "name": "withdrawVault",
      "outputs": [],
      "stateMutability": "nonpayable",
      "type": "function"
    },
    {
      "stateMutability": "payable",
      "type": "receive"
    }
  ],
  "bytecode": "0x6080604052600160075560326009556101f4600a5534801561001f575f5ffd5b5060405161279138038061279183398101604081905261003e916100fe565b60015f55338061006757604051631e4fbdf760e01b81525f600482015260240160405180910390fd5b610070816100ad565b506001600160a01b0381166100855733610087565b805b600b80546001600160a01b0319166001600160a01b03929092169190911790555061012b565b600180546001600160a01b038381166001600160a01b0319831681179093556040519116919082907f8be0079c531659141344cd1fd0a4f28419497f9722a3daafe3b4186f6b6457e0905f90a35050565b5f6020828403121561010e575f5ffd5b81516001600160a01b0381168114610124575f5ffd5b9392505050565b612659806101385f395ff3fe6080604052600436106101bd575f3560e01c80638c64ea4a116100f2578063c59d484711610092578063e74b981b11610062578063e74b981b14610502578063e7f3c69c14610521578063eb74d83514610540578063f2fde38b1461055f575f5ffd5b8063c59d484714610495578063d319da78146104c4578063d94a7af5146104e3578063da1e180a14610298575f5ffd5b80639403b634116100cd5780639403b634146104085780639c841fef14610434578063bc5efb6714610453578063c3a70aca14610466575f5ffd5b80638c64ea4a1461039e5780638d654023146103d65780638da5cb5b146103eb575f5ffd5b80633ff032071161015d5780634de5e5a6116101385780634de5e5a6146103105780635312ea8e1461035757806359ecd65714610376578063715018a61461038a575f5ffd5b80633ff032071461029857806346904840146102ad5780634d79be79146102e4575f5ffd5b8063132512041161019857806313251204146102305780632057420b1461024f57806326232a2e1461026e5780633dc10ad414610283575f5ffd5b806310c4f434146101c857806312ac1763146101e957806312e8e2c314610211575f5ffd5b366101c457005b5f5ffd5b3480156101d3575f5ffd5b506101e76101e2366004611ed6565b61057e565b005b3480156101f4575f5ffd5b506101fe60075481565b6040519081526020015b60405180910390f35b34801561021c575f5ffd5b506101e761022b366004611ed6565b6105d9565b34801561023b575f5ffd5b506101e761024a366004611ed6565b610627565b34801561025a575f5ffd5b506101e7610269366004611f01565b610895565b348015610279575f5ffd5b506101fe60095481565b34801561028e575f5ffd5b506101fe600a5481565b3480156102a3575f5ffd5b506101fe610e1081565b3480156102b8575f5ffd5b50600b546102cc906001600160a01b031681565b6040516001600160a01b039091168152602001610208565b3480156102ef575f5ffd5b506103036102fe366004611f3f565b610c61565b6040516102089190611f61565b34801561031b575f5ffd5b5061032f61032a366004611ed6565b610cca565b6040805194855260208501939093529015159183019190915215156060820152608001610208565b348015610362575f5ffd5b506101e7610371366004611ed6565b610d40565b348015610381575f5ffd5b506101fe603281565b348015610395575f5ffd5b506101e7611056565b3480156103a9575f5ffd5b506103bd6103b8366004611ed6565b611069565b6040516102089d9c9b9a99989796959493929190611fd1565b3480156103e1575f5ffd5b506101fe60085481565b3480156103f6575f5ffd5b506001546001600160a01b03166102cc565b348015610413575f5ffd5b50610427610422366004611ed6565b61116a565b6040516102089190612097565b34801561043f575f5ffd5b506101fe61044e36600461219c565b6113c9565b6101fe6104613660046122b3565b6113f4565b348015610471575f5ffd5b50610485610480366004611f01565b61197a565b6040519015158152602001610208565b3480156104a0575f5ffd5b506104a96119d4565b60408051938452602084019290925290820152606001610208565b3480156104cf575f5ffd5b506101fe6104de36600461219c565b611a69565b3480156104ee575f5ffd5b506104856104fd366004611ed6565b611a82565b34801561050d575f5ffd5b506101e761051c366004611f3f565b611ae6565b34801561052c575f5ffd5b5061030361053b366004611f3f565b611b5a565b34801561054b575f5ffd5b5061048561055a366004611f01565b611bc1565b34801561056a575f5ffd5b506101e7610579366004611f3f565b611c1f565b610586611c5c565b6107d08111156105d45760405162461bcd60e51b81526020600482015260146024820152730a0cadcc2d8e8f240cccaca40e8dede40d0d2ced60631b60448201526064015b60405180910390fd5b600a55565b6105e1611c5c565b6103e88111156106225760405162461bcd60e51b815260206004820152600c60248201526b08ccaca40e8dede40d0d2ced60a31b60448201526064016105cb565b600955565b806007548110801561063857505f81115b6106545760405162461bcd60e51b81526004016105cb906123bc565b5f828152600660209081526040808320338452909152902054829060ff166106ad5760405162461bcd60e51b815260206004820152600c60248201526b2737ba10309039b4b3b732b960a11b60448201526064016105cb565b5f838152600260208190526040909120908101546001600160a01b03166107085760405162461bcd60e51b815260206004820152600f60248201526e15985d5b1d081b9bdd08199bdd5b99608a1b60448201526064016105cb565b600881015462010000900460ff16156107635760405162461bcd60e51b815260206004820152601760248201527f5661756c7420616c72656164792077697468647261776e00000000000000000060448201526064016105cb565b335f90815260098201602052604090205460ff16156107b55760405162461bcd60e51b815260206004820152600e60248201526d105b1c9958591e481cda59db995960921b60448201526064016105cb565b335f9081526009820160205260408120805460ff19166001179055600a82018054916107e0836123fe565b90915550506004810154600a82015460ff90911611801590610806575061080684611a82565b156108475760088101805461ff00191661010017905560405184907f3a119f7ba8b2d0b50b2052497850fdad1464c8f48288498812ad2673e06f6c83905f90a25b336001600160a01b0316847fd41a7c264d211fefc43a1253acfa6996241f53304f1db34256f97d5d8557739683600a015460405161088791815260200190565b60405180910390a350505050565b81600754811080156108a657505f81115b6108c25760405162461bcd60e51b81526004016105cb906123bc565b6108ca611c89565b5f8381526002602052604090206008810154610100900460ff166109255760405162461bcd60e51b815260206004820152601260248201527115985d5b1d081b9bdd081d5b9b1bd8dad95960721b60448201526064016105cb565b600881015462010000900460ff16156109745760405162461bcd60e51b815260206004820152601160248201527020b63932b0b23c903bb4ba34323930bbb760791b60448201526064016105cb565b6001600160a01b0383166109be5760405162461bcd60e51b8152602060048201526011602482015270125b9d985b1a59081c9958da5c1a595b9d607a1b60448201526064016105cb565b6109c8843361197a565b806109df575060028101546001600160a01b031633145b610a2b5760405162461bcd60e51b815260206004820152601a60248201527f4e6f7420617574686f72697a656420746f20776974686472617700000000000060448201526064016105cb565b60088101805462ff000019166201000017905560095460058201545f9161271091610a569190612416565b610a609190612433565b90505f818360050154610a739190612452565b600484015490915061010090046001600160a01b0316610bc4578115610b2b57600b546040515f916001600160a01b03169084908381818185875af1925050503d805f8114610add576040519150601f19603f3d011682016040523d82523d5f602084013e610ae2565b606091505b5050905080610b295760405162461bcd60e51b8152602060048201526013602482015272119959481d1c985b9cd9995c8819985a5b1959606a1b60448201526064016105cb565b505b5f856001600160a01b0316826040515f6040518083038185875af1925050503d805f8114610b74576040519150601f19603f3d011682016040523d82523d5f602084013e610b79565b606091505b5050905080610bbe5760405162461bcd60e51b815260206004820152601160248201527015da5d1a191c985dd85b0811985a5b1959607a1b60448201526064016105cb565b50610c0c565b8115610bee57600b546004840154610bee916001600160a01b036101009092048216911684611cb1565b6004830154610c0c9061010090046001600160a01b03168683611cb1565b846001600160a01b0316867f78c42d93b539654d49abadf8d324e5b8177c66f0c0b1adc5e07babb9e141135e83604051610c4891815260200190565b60405180910390a3505050610c5c60015f55565b505050565b6001600160a01b0381165f90815260046020908152604091829020805483518184028101840190945280845260609392830182828015610cbe57602002820191905f5260205f20905b815481526020019060010190808311610caa575b50505050509050919050565b5f5f5f5f8460075481108015610cdf57505f81115b610cfb5760405162461bcd60e51b81526004016105cb906123bc565b5f868152600260205260409020600a810154600482015460ff16610d1e89611a82565b60089390930154919960ff918216995092975061010090910416945092505050565b8060075481108015610d5157505f81115b610d6d5760405162461bcd60e51b81526004016105cb906123bc565b610d75611c89565b5f828152600260208190526040909120908101546001600160a01b03163314610dec5760405162461bcd60e51b815260206004820152602360248201527f4f6e6c792063726561746f722063616e20656d657267656e637920776974686460448201526272617760e81b60648201526084016105cb565b600881015462010000900460ff1615610e3b5760405162461bcd60e51b815260206004820152601160248201527020b63932b0b23c903bb4ba34323930bbb760791b60448201526064016105cb565b60088101805462ff0000191662010000179055600a5460058201545f9161271091610e669190612416565b610e709190612433565b90505f818360050154610e839190612452565b600484015490915061010090046001600160a01b0316610fcd57600b546040515f916001600160a01b03169084908381818185875af1925050503d805f8114610ee7576040519150601f19603f3d011682016040523d82523d5f602084013e610eec565b606091505b5050905080610f3d5760405162461bcd60e51b815260206004820152601760248201527f50656e616c7479207472616e73666572206661696c656400000000000000000060448201526064016105cb565b6040515f90339084908381818185875af1925050503d805f8114610f7c576040519150601f19603f3d011682016040523d82523d5f602084013e610f81565b606091505b5050905080610fc65760405162461bcd60e51b815260206004820152601160248201527015da5d1a191c985dd85b0811985a5b1959607a1b60448201526064016105cb565b505061100f565b600b546004840154610ff1916001600160a01b036101009092048216911684611cb1565b600483015461100f9061010090046001600160a01b03163383611cb1565b604051818152339086907f947a9dc0c5e62cc9756634ec0a89afea37eb0305933925040b9bda82004400209060200160405180910390a350505061105260015f55565b5050565b61105e611c5c565b6110675f611d10565b565b60026020525f90815260409020805460018201805491929161108a90612465565b80601f01602080910402602001604051908101604052809291908181526020018280546110b690612465565b80156111015780601f106110d857610100808354040283529160200191611101565b820191905f5260205f20905b8154815290600101906020018083116110e457829003601f168201915b50505050600283015460048401546005850154600686015460078701546008880154600a890154600b9099015497986001600160a01b039687169860ff80881699506101009788900490981697959694959394848416949084048116936201000090041691908d565b6111eb604051806101c001604052805f8152602001606081526020015f6001600160a01b03168152602001606081526020015f60ff1681526020015f6001600160a01b031681526020015f81526020015f81526020015f81526020015f151581526020015f151581526020015f151581526020015f81526020015f81525090565b81600754811080156111fc57505f81115b6112185760405162461bcd60e51b81526004016105cb906123bc565b5f8381526002602090815260409182902082516101c081019093528054835260018101805491939283019161124c90612465565b80601f016020809104026020016040519081016040528092919081815260200182805461127890612465565b80156112c35780601f1061129a576101008083540402835291602001916112c3565b820191905f5260205f20905b8154815290600101906020018083116112a657829003601f168201915b505050918352505060028301546001600160a01b0316602080830191909152600384018054604080518285028101850182528281529401939283018282801561133357602002820191905f5260205f20905b81546001600160a01b03168152600190910190602001808311611315575b5050509183525050600483015460ff80821660208401526001600160a01b03610100928390041660408401526005850154606084015260068501546080840152600785015460a08401526008850154808216151560c08501528281048216151560e085015262010000900416151590820152600a830154610120820152600b909201546101409092019190915291505b50919050565b6003602052815f5260405f2081815481106113e2575f80fd5b905f5260205f20015f91509150505481565b5f6113fd611c89565b5f8951116114445760405162461bcd60e51b81526020600482015260146024820152734e616d652063616e6e6f7420626520656d70747960601b60448201526064016105cb565b5f885111801561145657506032885111155b61149a5760405162461bcd60e51b8152602060048201526015602482015274125b9d985b1a59081cda59db995c9cc818dbdd5b9d605a1b60448201526064016105cb565b5f8760ff161180156114b0575087518760ff1611155b6114fc5760405162461bcd60e51b815260206004820152601b60248201527f496e76616c6964207265717569726564207369676e617475726573000000000060448201526064016105cb565b5f841161154b5760405162461bcd60e51b815260206004820152601d60248201527f416d6f756e74206d7573742062652067726561746572207468616e203000000060448201526064016105cb565b85156115c65743821180156115755750611568600d610e10612433565b6115729043612497565b82115b6115c15760405162461bcd60e51b815260206004820152601960248201527f4c6f636b20626c6f636b2068656967687420746f6f206c6f770000000000000060448201526064016105cb565b61160b565b42831161160b5760405162461bcd60e51b8152602060048201526013602482015272131bd8dac81d1a5b59481d1bdbc81cda1bdc9d606a1b60448201526064016105cb565b6116158585611d61565b600780545f9182611625836123fe565b909155505f8181526002602052604090208181559091506001810161164a8c826124f5565b50600281018054336001600160a01b031990911617905560048101805460ff8b166001600160a81b0319909116176101006001600160a01b038a160217905560058101869055600681018590556007810184905560088101805460ff191689151517905542600b8201555f5b8a518160ff1610156118e2575f6001600160a01b03168b8260ff16815181106116e1576116e16125b0565b60200260200101516001600160a01b0316036117385760405162461bcd60e51b8152602060048201526016602482015275496e76616c6964207369676e6572206164647265737360501b60448201526064016105cb565b60065f8481526020019081526020015f205f8c8360ff168151811061175f5761175f6125b0565b6020908102919091018101516001600160a01b031682528101919091526040015f205460ff16156117c55760405162461bcd60e51b815260206004820152601060248201526f223ab83634b1b0ba329039b4b3b732b960811b60448201526064016105cb565b5f8381526006602052604081208c51600192908e9060ff86169081106117ed576117ed6125b0565b60200260200101516001600160a01b03166001600160a01b031681526020019081526020015f205f6101000a81548160ff021916908315150217905550816003018b8260ff1681518110611843576118436125b0565b60209081029190910181015182546001810184555f93845291832090910180546001600160a01b0319166001600160a01b039092169190911790558b51600491908d9060ff8516908110611899576118996125b0565b6020908102919091018101516001600160a01b03168252818101929092526040015f908120805460018101825590825291902001839055806118da816125c4565b9150506116b6565b50335f90815260036020908152604082208054600181018255908352908220018390556008805491611913836123fe565b9190505550336001600160a01b0316827f595ce487888556d1f7a753a023acc7257fa8a53e8225af0b2a5d6bb02102eeb48d8a8a8a8e60405161195a9594939291906125e2565b60405180910390a350905061196e60015f55565b98975050505050505050565b5f826007548110801561198c57505f81115b6119a85760405162461bcd60e51b81526004016105cb906123bc565b50505f9182526006602090815260408084206001600160a01b0393909316845291905290205460ff1690565b5f8080808060015b600754811015611a5b575f8181526002602052604090206008015462010000900460ff16611a53575f8181526002602052604090206004015461010090046001600160a01b0316611a45575f81815260026020526040902060050154611a429084612497565b92505b81611a4f816123fe565b9250505b6001016119dc565b506008549591945092509050565b6004602052815f5260405f2081815481106113e2575f80fd5b5f8160075481108015611a9457505f81115b611ab05760405162461bcd60e51b81526004016105cb906123bc565b5f838152600260205260409020600881015460ff1615611ad8576007015443101591506113c3565b6006015442101591506113c3565b611aee611c5c565b6001600160a01b038116611b385760405162461bcd60e51b8152602060048201526011602482015270125b9d985b1a59081c9958da5c1a595b9d607a1b60448201526064016105cb565b600b80546001600160a01b0319166001600160a01b0392909216919091179055565b6001600160a01b0381165f90815260036020908152604091829020805483518184028101840190945280845260609392830182828015610cbe57602002820191905f5260205f2090815481526020019060010190808311610caa5750505050509050919050565b5f8260075481108015611bd357505f81115b611bef5760405162461bcd60e51b81526004016105cb906123bc565b50505f9182526002602090815260408084206001600160a01b039390931684526009909201905290205460ff1690565b611c27611c5c565b6001600160a01b038116611c5057604051631e4fbdf760e01b81525f60048201526024016105cb565b611c5981611d10565b50565b6001546001600160a01b031633146110675760405163118cdaa760e01b81523360048201526024016105cb565b60025f5403611cab57604051633ee5aeb560e01b815260040160405180910390fd5b60025f55565b6040516001600160a01b03838116602483015260448201839052610c5c91859182169063a9059cbb906064015b604051602081830303815290604052915060e01b6020820180516001600160e01b038381831617835250505050611e2b565b600180546001600160a01b038381166001600160a01b0319831681179093556040519116919082907f8be0079c531659141344cd1fd0a4f28419497f9722a3daafe3b4186f6b6457e0905f90a35050565b6001600160a01b038216611dbe578034146110525760405162461bcd60e51b815260206004820152601d60248201527f496e636f7272656374206e617469766520746f6b656e20616d6f756e7400000060448201526064016105cb565b3415611e165760405162461bcd60e51b815260206004820152602160248201527f4e6f206e617469766520746f6b656e73206e656564656420666f7220455243326044820152600360fc1b60648201526084016105cb565b6110526001600160a01b038316333084611e9d565b5f5f60205f8451602086015f885af180611e4a576040513d5f823e3d81fd5b50505f513d91508115611e61578060011415611e6e565b6001600160a01b0384163b155b15611e9757604051635274afe760e01b81526001600160a01b03851660048201526024016105cb565b50505050565b6040516001600160a01b038481166024830152838116604483015260648201839052611e979186918216906323b872dd90608401611cde565b5f60208284031215611ee6575f5ffd5b5035919050565b6001600160a01b0381168114611c59575f5ffd5b5f5f60408385031215611f12575f5ffd5b823591506020830135611f2481611eed565b809150509250929050565b8035611f3a81611eed565b919050565b5f60208284031215611f4f575f5ffd5b8135611f5a81611eed565b9392505050565b602080825282518282018190525f918401906040840190835b81811015611f98578351835260209384019390920191600101611f7a565b509095945050505050565b5f81518084528060208401602086015e5f602082860101526020601f19601f83011685010191505092915050565b8d81526101a060208201525f611feb6101a083018f611fa3565b6001600160a01b039d8e16604084015260ff9c909c1660608301525098909a16608089015260a088019690965260c087019490945260e0860192909252151561010085015215156101208401521515610140830152610160820152610180019190915292915050565b5f8151808452602084019350602083015f5b8281101561208d5781516001600160a01b0316865260209586019590910190600101612066565b5093949350505050565b60208152815160208201525f60208301516101c060408401526120be6101e0840182611fa3565b905060408401516120da60608501826001600160a01b03169052565b506060840151838203601f190160808501526120f68282612054565b915050608084015161210d60a085018260ff169052565b5060a08401516001600160a01b03811660c08501525060c084015160e084015260e084015161010084015261010084015161012084015261012084015161215961014085018215159052565b5061014084015180151561016085015250610160840151801515610180850152506101808401516101a08401526101a08401516101c08401528091505092915050565b5f5f604083850312156121ad575f5ffd5b82356121b881611eed565b946020939093013593505050565b634e487b7160e01b5f52604160045260245ffd5b604051601f8201601f1916810167ffffffffffffffff81118282101715612203576122036121c6565b604052919050565b5f82601f83011261221a575f5ffd5b813567ffffffffffffffff811115612234576122346121c6565b8060051b612244602082016121da565b9182526020818501810192908101908684111561225f575f5ffd5b6020860192505b8383101561228a57823561227981611eed565b825260209283019290910190612266565b9695505050505050565b803560ff81168114611f3a575f5ffd5b80358015158114611f3a575f5ffd5b5f5f5f5f5f5f5f5f610100898b0312156122cb575f5ffd5b883567ffffffffffffffff8111156122e1575f5ffd5b8901601f81018b136122f1575f5ffd5b803567ffffffffffffffff81111561230b5761230b6121c6565b61231e601f8201601f19166020016121da565b8181528c6020838501011115612332575f5ffd5b816020840160208301375f60208383010152809a50505050602089013567ffffffffffffffff811115612363575f5ffd5b61236f8b828c0161220b565b97505061237e60408a01612294565b955061238c60608a016122a4565b945061239a60808a01611f2f565b979a969950949793969560a0850135955060c08501359460e001359350915050565b60208082526014908201527315985d5b1d08191bd95cc81b9bdd08195e1a5cdd60621b604082015260600190565b634e487b7160e01b5f52601160045260245ffd5b5f6001820161240f5761240f6123ea565b5060010190565b808202811582820484141761242d5761242d6123ea565b92915050565b5f8261244d57634e487b7160e01b5f52601260045260245ffd5b500490565b8181038181111561242d5761242d6123ea565b600181811c9082168061247957607f821691505b6020821081036113c357634e487b7160e01b5f52602260045260245ffd5b8082018082111561242d5761242d6123ea565b601f821115610c5c57805f5260205f20601f840160051c810160208510156124cf5750805b601f840160051c820191505b818110156124ee575f81556001016124db565b5050505050565b815167ffffffffffffffff81111561250f5761250f6121c6565b6125238161251d8454612465565b846124aa565b6020601f821160018114612555575f831561253e5750848201515b5f19600385901b1c1916600184901b1784556124ee565b5f84815260208120601f198516915b828110156125845787850151825560209485019460019092019101612564565b50848210156125a157868401515f19600387901b60f8161c191681555b50505050600190811b01905550565b634e487b7160e01b5f52603260045260245ffd5b5f60ff821660ff81036125d9576125d96123ea565b60010192915050565b60a081525f6125f460a0830188611fa3565b6001600160a01b039690961660208301525060408101939093526060830191909152151560809091015291905056fea264697066735822122027756096f9d77f510af5dcd65b34167876954230b8b56cf0393e21105e8f6d8c64736f6c634300081c0033",
  "linkReferences": {},
  "deployedLinkReferences": {},
  "immutableReferences": {},
  "inputSourceName": "project/contracts/ChronoVault.sol",
  "buildInfoId": "solc-0_8_28-b92d0f4fe8a41d7671c9392f28050c7b82387216"
}