{
  "_format": "hh3-artifact-1",
  "contractName": "ChronoVault",
  "sourceName": "contracts/ChronoVault.sol",
  "abi": [
    {
      "inputs": [
        {
          "internalType": "address",
          "name": "_feeRecipient",
          "type": "address"
        }
      ],
      "stateMutability": "nonpayable",
      "type": "constructor"
    },
    {
      "inputs": [
        {
          "internalType": "address",
          "name": "owner",
          "type": "address"
        }
      ],
      "name": "OwnableInvalidOwner",
      "type": "error"
    },
    {
      "inputs": [
        {
          "internalType": "address",
          "name": "account",
          "type": "address"
        }
      ],
      "name": "OwnableUnauthorizedAccount",
      "type": "error"
    },
    {
      "inputs": [],
      "name": "ReentrancyGuardReentrantCall",
      "type": "error"
    },
    {
      "inputs": [
        {
          "internalType": "address",
          "name": "token",
          "type": "address"
        }
      ],
      "name": "SafeERC20FailedOperation",
      "type": "error"
    },
    {
      "anonymous": false,
      "inputs": [
        {
          "indexed": true,
          "internalType": "uint256",
          "name": "vaultId",
          "type": "uint256"
        },
        {
          "indexed": true,
          "internalType": "address",
          "name": "creator",
          "type": "address"
        },
        {
          "indexed": false,
          "internalType": "uint256",
          "name": "amount",
          "type": "uint256"
        }
      ],
      "name": "EmergencyWithdraw",
      "type": "event"
    },
    {
      "anonymous": false,
      "inputs": [
        {
          "indexed": true,
          "internalType": "address",
          "name": "previousOwner",
          "type": "address"
        },
        {
          "indexed": true,
          "internalType": "address",
          "name": "newOwner",
          "type": "address"
        }
      ],
      "name": "OwnershipTransferred",
      "type": "event"
    },
    {
      "anonymous": false,
      "inputs": [
        {
          "indexed": true,
          "internalType": "uint256",
          "name": "vaultId",
          "type": "uint256"
        },
        {
          "indexed": true,
          "internalType": "address",
          "name": "creator",
          "type": "address"
        },
        {
          "indexed": false,
          "internalType": "string",
          "name": "name",
          "type": "string"
        },
        {
          "indexed": false,
          "internalType": "address",
          "name": "tokenAddress",
          "type": "address"
        },
        {
          "indexed": false,
          "internalType": "uint256",
          "name": "amount",
          "type": "uint256"
        },
        {
          "indexed": false,
          "internalType": "uint256",
          "name": "unlockTimestamp",
          "type": "uint256"
        },
        {
          "indexed": false,
          "internalType": "bool",
          "name": "useBlockNumber",
          "type": "bool"
        }
      ],
      "name": "VaultCreated",
      "type": "event"
    },
    {
      "anonymous": false,
      "inputs": [
        {
          "indexed": true,
          "internalType": "uint256",
          "name": "vaultId",
          "type": "uint256"
        },
        {
          "indexed": true,
          "internalType": "address",
          "name": "signer",
          "type": "address"
        },
        {
          "indexed": false,
          "internalType": "uint256",
          "name": "currentSignatures",
          "type": "uint256"
        }
      ],
      "name": "VaultSigned",
      "type": "event"
    },
    {
      "anonymous": false,
      "inputs": [
        {
          "indexed": true,
          "internalType": "uint256",
          "name": "vaultId",
          "type": "uint256"
        }
      ],
      "name": "VaultUnlocked",
      "type": "event"
    },
    {
      "anonymous": false,
      "inputs": [
        {
          "indexed": true,
          "internalType": "uint256",
          "name": "vaultId",
          "type": "uint256"
        },
        {
          "indexed": true,
          "internalType": "address",
          "name": "recipient",
          "type": "address"
        },
        {
          "indexed": false,
          "internalType": "uint256",
          "name": "amount",
          "type": "uint256"
        }
      ],
      "name": "VaultWithdrawn",
      "type": "event"
    },
    {
      "inputs": [],
      "name": "MAX_SIGNERS",
      "outputs": [
        {
          "internalType": "uint256",
          "name": "",
          "type": "uint256"
        }
      ],
      "stateMutability": "view",
      "type": "function"
    },
    {
      "inputs": [],
      "name": "MIN_BLOCK_LOCK_TIME",
      "outputs": [
        {
          "internalType": "uint256",
          "name": "",
          "type": "uint256"
        }
      ],
      "stateMutability": "view",
      "type": "function"
    },
    {
      "inputs": [],
      "name": "MIN_LOCK_TIME",
      "outputs": [
        {
          "internalType": "uint256",
          "name": "",
          "type": "uint256"
        }
      ],
      "stateMutability": "view",
      "type": "function"
    },
    {
      "inputs": [
        {
          "internalType": "uint256",
          "name": "vaultId",
          "type": "uint256"
        }
      ],
      "name": "canUnlock",
      "outputs": [
        {
          "internalType": "bool",
          "name": "",
          "type": "bool"
        }
      ],
      "stateMutability": "view",
      "type": "function"
    },
    {
      "inputs": [
        {
          "internalType": "string",
          "name": "name",
          "type": "string"
        },
        {
          "internalType": "address[]",
          "name": "signers",
          "type": "address[]"
        },
        {
          "internalType": "uint8",
          "name": "requiredSignatures",
          "type": "uint8"
        },
        {
          "internalType": "bool",
          "name": "useBlockNumber",
          "type": "bool"
        },
        {
          "internalType": "address",
          "name": "tokenAddress",
          "type": "address"
        },
        {
          "internalType": "uint256",
          "name": "amount",
          "type": "uint256"
        },
        {
          "internalType": "uint256",
          "name": "unlockTimestamp",
          "type": "uint256"
        },
        {
          "internalType": "uint256",
          "name": "unlockBlockHeight",
          "type": "uint256"
        }
      ],
      "name": "createVault",
      "outputs": [
        {
          "internalType": "uint256",
          "name": "",
          "type": "uint256"
        }
      ],
      "stateMutability": "payable",
      "type": "function"
    },
    {
      "inputs": [
        {
          "internalType": "uint256",
          "name": "vaultId",
          "type": "uint256"
        }
      ],
      "name": "emergencyWithdraw",
      "outputs": [],
      "stateMutability": "nonpayable",
      "type": "function"
    },
    {
      "inputs": [],
      "name": "feeRecipient",
      "outputs": [
        {
          "internalType": "address",
          "name": "",
          "type": "address"
        }
      ],
      "stateMutability": "view",
      "type": "function"
    },
    {
      "inputs": [
        {
          "internalType": "address",
          "name": "signer",
          "type": "address"
        }
      ],
      "name": "getSignerVaults",
      "outputs": [
        {
          "internalType": "uint256[]",
          "name": "",
          "type": "uint256[]"
        }
      ],
      "stateMutability": "view",
      "type": "function"
    },
    {
      "inputs": [],
      "name": "getStats",
      "outputs": [
        {
          "internalType": "uint256",
          "name": "totalVaultsCount",
          "type": "uint256"
        },
        {
          "internalType": "uint256",
          "name": "totalValueLocked",
          "type": "uint256"
        },
        {
          "internalType": "uint256",
          "name": "activeVaults",
          "type": "uint256"
        }
      ],
      "stateMutability": "view",
      "type": "function"
    },
    {
      "inputs": [
        {
          "internalType": "address",
          "name": "user",
          "type": "address"
        }
      ],
      "name": "getUserVaults",
      "outputs": [
        {
          "internalType": "uint256[]",
          "name": "",
          "type": "uint256[]"
        }
      ],
      "stateMutability": "view",
      "type": "function"
    },
    {
      "inputs": [
        {
          "internalType": "uint256",
          "name": "vaultId",
          "type": "uint256"
        }
      ],
      "name": "getVault",
      "outputs": [
        {
          "components": [
            {
              "internalType": "uint256",
              "name": "id",
              "type": "uint256"
            },
            {
              "internalType": "string",
              "name": "name",
              "type": "string"
            },
            {
              "internalType": "address",
              "name": "creator",
              "type": "address"
            },
            {
              "internalType": "address[]",
              "name": "signers",
              "type": "address[]"
            },
            {
              "internalType": "uint8",
              "name": "requiredSignatures",
              "type": "uint8"
            },
            {
              "internalType": "address",
              "name": "tokenAddress",
              "type": "address"
            },
            {
              "internalType": "uint256",
              "name": "amount",
              "type": "uint256"
            },
            {
              "internalType": "uint256",
              "name": "unlockTimestamp",
              "type": "uint256"
            },
            {
              "internalType": "uint256",
              "name": "unlockBlockHeight",
              "type": "uint256"
            },
            {
              "internalType": "bool",
              "name": "useBlockNumber",
              "type": "bool"
            },
            {
              "internalType": "bool",
              "name": "isUnlocked",
              "type": "bool"
            },
            {
              "internalType": "bool",
              "name": "isWithdrawn",
              "type": "bool"
            },
            {
              "internalType": "uint256",
              "name": "currentSignatures",
              "type": "uint256"
            },
            {
              "internalType": "uint256",
              "name": "createdAt",
              "type": "uint256"
            }
          ],
          "internalType": "struct ChronoVault.VaultInfo",
          "name": "",
          "type": "tuple"
        }
      ],
      "stateMutability": "view",
      "type": "function"
    },
    {
      "inputs": [
        {
          "internalType": "uint256",
          "name": "vaultId",
          "type": "uint256"
        }
      ],
      "name": "getVaultSigningStatus",
      "outputs": [
        {
          "internalType": "uint256",
          "name": "currentSignatures",
          "type": "uint256"
        },
        {
          "internalType": "uint256",
          "name": "requiredSignatures",
          "type": "uint256"
        },
        {
          "internalType": "bool",
          "name": "canUnlockNow",
          "type": "bool"
        },
        {
          "internalType": "bool",
          "name": "isUnlocked",
          "type": "bool"
        }
      ],
      "stateMutability": "view",
      "type": "function"
    },
    {
      "inputs": [
        {
          "internalType": "uint256",
          "name": "vaultId",
          "type": "uint256"
        },
        {
          "internalType": "address",
          "name": "user",
          "type": "address"
        }
      ],
      "name": "hasUserSigned",
      "outputs": [
        {
          "internalType": "bool",
          "name": "",
          "type": "bool"
        }
      ],
      "stateMutability": "view",
      "type": "function"
    },
    {
      "inputs": [
        {
          "internalType": "uint256",
          "name": "vaultId",
          "type": "uint256"
        },
        {
          "internalType": "address",
          "name": "signer",
          "type": "address"
        }
      ],
      "name": "isSigned",
      "outputs": [
        {
          "internalType": "bool",
          "name": "",
          "type": "bool"
        }
      ],
      "stateMutability": "view",
      "type": "function"
    },
    {
      "inputs": [
        {
          "internalType": "uint256",
          "name": "vaultId",
          "type": "uint256"
        },
        {
          "internalType": "address",
          "name": "signer",
          "type": "address"
        }
      ],
      "name": "isVaultSigner",
      "outputs": [
        {
          "internalType": "bool",
          "name": "",
          "type": "bool"
        }
      ],
      "stateMutability": "view",
      "type": "function"
    },
    {
      "inputs": [],
      "name": "nextVaultId",
      "outputs": [
        {
          "internalType": "uint256",
          "name": "",
          "type": "uint256"
        }
      ],
      "stateMutability": "view",
      "type": "function"
    },
    {
      "inputs": [],
      "name": "owner",
      "outputs": [
        {
          "internalType": "address",
          "name": "",
          "type": "address"
        }
      ],
      "stateMutability": "view",
      "type": "function"
    },
    {
      "inputs": [],
      "name": "penaltyFee",
      "outputs": [
        {
          "internalType": "uint256",
          "name": "",
          "type": "uint256"
        }
      ],
      "stateMutability": "view",
      "type": "function"
    },
    {
      "inputs": [],
      "name": "platformFee",
      "outputs": [
        {
          "internalType": "uint256",
          "name": "",
          "type": "uint256"
        }
      ],
      "stateMutability": "view",
      "type": "function"
    },
    {
      "inputs": [],
      "name": "renounceOwnership",
      "outputs": [],
      "stateMutability": "nonpayable",
      "type": "function"
    },
    {
      "inputs": [
        {
          "internalType": "address",
          "name": "newRecipient",
          "type": "address"
        }
      ],
      "name": "setFeeRecipient",
      "outputs": [],
      "stateMutability": "nonpayable",
      "type": "function"
    },
    {
      "inputs": [
        {
          "internalType": "uint256",
          "name": "newFee",
          "type": "uint256"
        }
      ],
      "name": "setPenaltyFee",
      "outputs": [],
      "stateMutability": "nonpayable",
      "type": "function"
    },
    {
      "inputs": [
        {
          "internalType": "uint256",
          "name": "newFee",
          "type": "uint256"
        }
      ],
      "name": "setPlatformFee",
      "outputs": [],
      "stateMutability": "nonpayable",
      "type": "function"
    },
    {
      "inputs": [
        {
          "internalType": "uint256",
          "name": "vaultId",
          "type": "uint256"
        }
      ],
      "name": "signVault",
      "outputs": [],
      "stateMutability": "nonpayable",
      "type": "function"
    },
    {
      "inputs": [
        {
          "internalType": "address",
          "name": "",
          "type": "address"
        },
        {
          "internalType": "uint256",
          "name": "",
          "type": "uint256"
        }
      ],
      "name": "signerVaults",
      "outputs": [
        {
          "internalType": "uint256",
          "name": "",
          "type": "uint256"
        }
      ],
      "stateMutability": "view",
      "type": "function"
    },
    {
      "inputs": [],
      "name": "totalVaults",
      "outputs": [
        {
          "internalType": "uint256",
          "name": "",
          "type": "uint256"
        }
      ],
      "stateMutability": "view",
      "type": "function"
    },
    {
      "inputs": [
        {
          "internalType": "address",
          "name": "newOwner",
          "type": "address"
        }
      ],
      "name": "transferOwnership",
      "outputs": [],
      "stateMutability": "nonpayable",
      "type": "function"
    },
    {
      "inputs": [
        {
          "internalType": "address",
          "name": "",
          "type": "address"
        },
        {
          "internalType": "uint256",
          "name": "",
          "type": "uint256"
        }
      ],
      "name": "userVaults",
      "outputs": [
        {
          "internalType": "uint256",
          "name": "",
          "type": "uint256"
        }
      ],
      "stateMutability": "view",
      "type": "function"
    },
    {
      "inputs": [
        {
          "internalType": "uint256",
          "name": "",
          "type": "uint256"
        }
      ],
      "name": "vaults",
      "outputs": [
        {
          "internalType": "uint256",
          "name": "id",
          "type": "uint256"
        },
        {
          "internalType": "string",
          "name": "name",
          "type": "string"
        },
        {
          "internalType": "address",
          "name": "creator",
          "type": "address"
        },
        {
          "internalType": "uint8",
          "name": "requiredSignatures",
          "type": "uint8"
        },
        {
          "internalType": "address",
          "name": "tokenAddress",
          "type": "address"
        },
        {
          "internalType": "uint256",
          "name": "amount",
          "type": "uint256"
        },
        {
          "internalType": "uint256",
          "name": "unlockTimestamp",
          "type": "uint256"
        },
        {
          "internalType": "uint256",
          "name": "unlockBlockHeight",
          "type": "uint256"
        },
        {
          "internalType": "bool",
          "name": "useBlockNumber",
          "type": "bool"
        },
        {
          "internalType": "bool",
          "name": "isUnlocked",
          "type": "bool"
        },
        {
          "internalType": "bool",
          "name": "isWithdrawn",
          "type": "bool"
        },
        {
          "internalType": "uint256",
          "name": "currentSignatures",
          "type": "uint256"
        },
        {
          "internalType": "uint256",
          "name": "createdAt",
          "type": "uint256"
        }
      ],
      "stateMutability": "view",
      "type": "function"
    },
    {
      "inputs": [
        {
          "internalType": "uint256",
          "name": "vaultId",
          "type": "uint256"
        },
        {
          "internalType": "address payable",
          "name": "recipient",
          "type": "address"
        }
      ],
      "name": "withdrawVault",
      "outputs": [],
      "stateMutability": "nonpayable",
      "type": "function"
    },
    {
      "stateMutability": "payable",
      "type": "receive"
    }
  ],
  "bytecode": "0x6080604052600160075560326009556101f4600a5534801561001f575f5ffd5b506040516127b93803806127b983398101604081905261003e916100fe565b60015f55338061006757604051631e4fbdf760e01b81525f600482015260240160405180910390fd5b610070816100ad565b506001600160a01b0381166100855733610087565b805b600b80546001600160a01b0319166001600160a01b03929092169190911790555061012b565b600180546001600160a01b038381166001600160a01b0319831681179093556040519116919082907f8be0079c531659141344cd1fd0a4f28419497f9722a3daafe3b4186f6b6457e0905f90a35050565b5f6020828403121561010e575f5ffd5b81516001600160a01b0381168114610124575f5ffd5b9392505050565b612681806101385f395ff3fe6080604052600436106101c8575f3560e01c80638c64ea4a116100f2578063c59d484711610092578063e74b981b11610062578063e74b981b1461052c578063e7f3c69c1461054b578063eb74d835146102a3578063f2fde38b1461056a575f5ffd5b8063c59d4847146104bf578063d319da78146104ee578063d94a7af51461050d578063da1e180a146102d2575f5ffd5b80639403b634116100cd5780639403b634146104425780639c841fef1461046e578063bc5efb671461048d578063c3a70aca146104a0575f5ffd5b80638c64ea4a146103d85780638d654023146104105780638da5cb5b14610425575f5ffd5b80633e6d21fa116101685780634de5e5a6116101385780634de5e5a61461034a5780635312ea8e1461039157806359ecd657146103b0578063715018a6146103c4575f5ffd5b80633e6d21fa146102a35780633ff03207146102d257806346904840146102e75780634d79be791461031e575f5ffd5b806313251204116101a3578063132512041461023b5780632057420b1461025a57806326232a2e146102795780633dc10ad41461028e575f5ffd5b806310c4f434146101d357806312ac1763146101f457806312e8e2c31461021c575f5ffd5b366101cf57005b5f5ffd5b3480156101de575f5ffd5b506101f26101ed366004611efe565b610589565b005b3480156101ff575f5ffd5b5061020960075481565b6040519081526020015b60405180910390f35b348015610227575f5ffd5b506101f2610236366004611efe565b6105e4565b348015610246575f5ffd5b506101f2610255366004611efe565b610632565b348015610265575f5ffd5b506101f2610274366004611f29565b6108a0565b348015610284575f5ffd5b5061020960095481565b348015610299575f5ffd5b50610209600a5481565b3480156102ae575f5ffd5b506102c26102bd366004611f29565b610c89565b6040519015158152602001610213565b3480156102dd575f5ffd5b50610209610e1081565b3480156102f2575f5ffd5b50600b54610306906001600160a01b031681565b6040516001600160a01b039091168152602001610213565b348015610329575f5ffd5b5061033d610338366004611f67565b610ce7565b6040516102139190611f89565b348015610355575f5ffd5b50610369610364366004611efe565b610d50565b6040805194855260208501939093529015159183019190915215156060820152608001610213565b34801561039c575f5ffd5b506101f26103ab366004611efe565b610dc6565b3480156103bb575f5ffd5b50610209603281565b3480156103cf575f5ffd5b506101f26110dc565b3480156103e3575f5ffd5b506103f76103f2366004611efe565b6110ef565b6040516102139d9c9b9a99989796959493929190611ff9565b34801561041b575f5ffd5b5061020960085481565b348015610430575f5ffd5b506001546001600160a01b0316610306565b34801561044d575f5ffd5b5061046161045c366004611efe565b6111f0565b60405161021391906120bf565b348015610479575f5ffd5b506102096104883660046121c4565b61144f565b61020961049b3660046122db565b61147a565b3480156104ab575f5ffd5b506102c26104ba366004611f29565b611a00565b3480156104ca575f5ffd5b506104d3611a5a565b60408051938452602084019290925290820152606001610213565b3480156104f9575f5ffd5b506102096105083660046121c4565b611aef565b348015610518575f5ffd5b506102c2610527366004611efe565b611b08565b348015610537575f5ffd5b506101f2610546366004611f67565b611b6c565b348015610556575f5ffd5b5061033d610565366004611f67565b611be0565b348015610575575f5ffd5b506101f2610584366004611f67565b611c47565b610591611c84565b6107d08111156105df5760405162461bcd60e51b81526020600482015260146024820152730a0cadcc2d8e8f240cccaca40e8dede40d0d2ced60631b60448201526064015b60405180910390fd5b600a55565b6105ec611c84565b6103e881111561062d5760405162461bcd60e51b815260206004820152600c60248201526b08ccaca40e8dede40d0d2ced60a31b60448201526064016105d6565b600955565b806007548110801561064357505f81115b61065f5760405162461bcd60e51b81526004016105d6906123e4565b5f828152600660209081526040808320338452909152902054829060ff166106b85760405162461bcd60e51b815260206004820152600c60248201526b2737ba10309039b4b3b732b960a11b60448201526064016105d6565b5f838152600260208190526040909120908101546001600160a01b03166107135760405162461bcd60e51b815260206004820152600f60248201526e15985d5b1d081b9bdd08199bdd5b99608a1b60448201526064016105d6565b600881015462010000900460ff161561076e5760405162461bcd60e51b815260206004820152601760248201527f5661756c7420616c72656164792077697468647261776e00000000000000000060448201526064016105d6565b335f90815260098201602052604090205460ff16156107c05760405162461bcd60e51b815260206004820152600e60248201526d105b1c9958591e481cda59db995960921b60448201526064016105d6565b335f9081526009820160205260408120805460ff19166001179055600a82018054916107eb83612426565b90915550506004810154600a82015460ff90911611801590610811575061081184611b08565b156108525760088101805461ff00191661010017905560405184907f3a119f7ba8b2d0b50b2052497850fdad1464c8f48288498812ad2673e06f6c83905f90a25b336001600160a01b0316847fd41a7c264d211fefc43a1253acfa6996241f53304f1db34256f97d5d8557739683600a015460405161089291815260200190565b60405180910390a350505050565b81600754811080156108b157505f81115b6108cd5760405162461bcd60e51b81526004016105d6906123e4565b6108d5611cb1565b5f8381526002602052604090206008810154610100900460ff166109305760405162461bcd60e51b815260206004820152601260248201527115985d5b1d081b9bdd081d5b9b1bd8dad95960721b60448201526064016105d6565b600881015462010000900460ff161561097f5760405162461bcd60e51b815260206004820152601160248201527020b63932b0b23c903bb4ba34323930bbb760791b60448201526064016105d6565b6001600160a01b0383166109c95760405162461bcd60e51b8152602060048201526011602482015270125b9d985b1a59081c9958da5c1a595b9d607a1b60448201526064016105d6565b6109d38433611a00565b806109ea575060028101546001600160a01b031633145b610a365760405162461bcd60e51b815260206004820152601a60248201527f4e6f7420617574686f72697a656420746f20776974686472617700000000000060448201526064016105d6565b60088101805462ff000019166201000017905560095460058201545f9161271091610a61919061243e565b610a6b919061245b565b90505f818360050154610a7e919061247a565b600484015490915061010090046001600160a01b0316610bcf578115610b3657600b546040515f916001600160a01b03169084908381818185875af1925050503d805f8114610ae8576040519150601f19603f3d011682016040523d82523d5f602084013e610aed565b606091505b5050905080610b345760405162461bcd60e51b8152602060048201526013602482015272119959481d1c985b9cd9995c8819985a5b1959606a1b60448201526064016105d6565b505b5f856001600160a01b0316826040515f6040518083038185875af1925050503d805f8114610b7f576040519150601f19603f3d011682016040523d82523d5f602084013e610b84565b606091505b5050905080610bc95760405162461bcd60e51b815260206004820152601160248201527015da5d1a191c985dd85b0811985a5b1959607a1b60448201526064016105d6565b50610c17565b8115610bf957600b546004840154610bf9916001600160a01b036101009092048216911684611cd9565b6004830154610c179061010090046001600160a01b03168683611cd9565b5f868152600560209081526040808320338452825291829020805460ff1916600117905590518281526001600160a01b0387169188917f78c42d93b539654d49abadf8d324e5b8177c66f0c0b1adc5e07babb9e141135e910160405180910390a3505050610c8460015f55565b505050565b5f8260075481108015610c9b57505f81115b610cb75760405162461bcd60e51b81526004016105d6906123e4565b50505f9182526002602090815260408084206001600160a01b039390931684526009909201905290205460ff1690565b6001600160a01b0381165f90815260046020908152604091829020805483518184028101840190945280845260609392830182828015610d4457602002820191905f5260205f20905b815481526020019060010190808311610d30575b50505050509050919050565b5f5f5f5f8460075481108015610d6557505f81115b610d815760405162461bcd60e51b81526004016105d6906123e4565b5f868152600260205260409020600a810154600482015460ff16610da489611b08565b60089390930154919960ff918216995092975061010090910416945092505050565b8060075481108015610dd757505f81115b610df35760405162461bcd60e51b81526004016105d6906123e4565b610dfb611cb1565b5f828152600260208190526040909120908101546001600160a01b03163314610e725760405162461bcd60e51b815260206004820152602360248201527f4f6e6c792063726561746f722063616e20656d657267656e637920776974686460448201526272617760e81b60648201526084016105d6565b600881015462010000900460ff1615610ec15760405162461bcd60e51b815260206004820152601160248201527020b63932b0b23c903bb4ba34323930bbb760791b60448201526064016105d6565b60088101805462ff0000191662010000179055600a5460058201545f9161271091610eec919061243e565b610ef6919061245b565b90505f818360050154610f09919061247a565b600484015490915061010090046001600160a01b031661105357600b546040515f916001600160a01b03169084908381818185875af1925050503d805f8114610f6d576040519150601f19603f3d011682016040523d82523d5f602084013e610f72565b606091505b5050905080610fc35760405162461bcd60e51b815260206004820152601760248201527f50656e616c7479207472616e73666572206661696c656400000000000000000060448201526064016105d6565b6040515f90339084908381818185875af1925050503d805f8114611002576040519150601f19603f3d011682016040523d82523d5f602084013e611007565b606091505b505090508061104c5760405162461bcd60e51b815260206004820152601160248201527015da5d1a191c985dd85b0811985a5b1959607a1b60448201526064016105d6565b5050611095565b600b546004840154611077916001600160a01b036101009092048216911684611cd9565b60048301546110959061010090046001600160a01b03163383611cd9565b604051818152339086907f947a9dc0c5e62cc9756634ec0a89afea37eb0305933925040b9bda82004400209060200160405180910390a35050506110d860015f55565b5050565b6110e4611c84565b6110ed5f611d38565b565b60026020525f9081526040902080546001820180549192916111109061248d565b80601f016020809104026020016040519081016040528092919081815260200182805461113c9061248d565b80156111875780601f1061115e57610100808354040283529160200191611187565b820191905f5260205f20905b81548152906001019060200180831161116a57829003601f168201915b50505050600283015460048401546005850154600686015460078701546008880154600a890154600b9099015497986001600160a01b039687169860ff80881699506101009788900490981697959694959394848416949084048116936201000090041691908d565b611271604051806101c001604052805f8152602001606081526020015f6001600160a01b03168152602001606081526020015f60ff1681526020015f6001600160a01b031681526020015f81526020015f81526020015f81526020015f151581526020015f151581526020015f151581526020015f81526020015f81525090565b816007548110801561128257505f81115b61129e5760405162461bcd60e51b81526004016105d6906123e4565b5f8381526002602090815260409182902082516101c08101909352805483526001810180549193928301916112d29061248d565b80601f01602080910402602001604051908101604052809291908181526020018280546112fe9061248d565b80156113495780601f1061132057610100808354040283529160200191611349565b820191905f5260205f20905b81548152906001019060200180831161132c57829003601f168201915b505050918352505060028301546001600160a01b031660208083019190915260038401805460408051828502810185018252828152940193928301828280156113b957602002820191905f5260205f20905b81546001600160a01b0316815260019091019060200180831161139b575b5050509183525050600483015460ff80821660208401526001600160a01b03610100928390041660408401526005850154606084015260068501546080840152600785015460a08401526008850154808216151560c08501528281048216151560e085015262010000900416151590820152600a830154610120820152600b909201546101409092019190915291505b50919050565b6003602052815f5260405f208181548110611468575f80fd5b905f5260205f20015f91509150505481565b5f611483611cb1565b5f8951116114ca5760405162461bcd60e51b81526020600482015260146024820152734e616d652063616e6e6f7420626520656d70747960601b60448201526064016105d6565b5f88511180156114dc57506032885111155b6115205760405162461bcd60e51b8152602060048201526015602482015274125b9d985b1a59081cda59db995c9cc818dbdd5b9d605a1b60448201526064016105d6565b5f8760ff16118015611536575087518760ff1611155b6115825760405162461bcd60e51b815260206004820152601b60248201527f496e76616c6964207265717569726564207369676e617475726573000000000060448201526064016105d6565b5f84116115d15760405162461bcd60e51b815260206004820152601d60248201527f416d6f756e74206d7573742062652067726561746572207468616e203000000060448201526064016105d6565b851561164c5743821180156115fb57506115ee600d610e1061245b565b6115f890436124bf565b82115b6116475760405162461bcd60e51b815260206004820152601960248201527f4c6f636b20626c6f636b2068656967687420746f6f206c6f770000000000000060448201526064016105d6565b611691565b4283116116915760405162461bcd60e51b8152602060048201526013602482015272131bd8dac81d1a5b59481d1bdbc81cda1bdc9d606a1b60448201526064016105d6565b61169b8585611d89565b600780545f91826116ab83612426565b909155505f818152600260205260409020818155909150600181016116d08c8261251d565b50600281018054336001600160a01b031990911617905560048101805460ff8b166001600160a81b0319909116176101006001600160a01b038a160217905560058101869055600681018590556007810184905560088101805460ff191689151517905542600b8201555f5b8a518160ff161015611968575f6001600160a01b03168b8260ff1681518110611767576117676125d8565b60200260200101516001600160a01b0316036117be5760405162461bcd60e51b8152602060048201526016602482015275496e76616c6964207369676e6572206164647265737360501b60448201526064016105d6565b60065f8481526020019081526020015f205f8c8360ff16815181106117e5576117e56125d8565b6020908102919091018101516001600160a01b031682528101919091526040015f205460ff161561184b5760405162461bcd60e51b815260206004820152601060248201526f223ab83634b1b0ba329039b4b3b732b960811b60448201526064016105d6565b5f8381526006602052604081208c51600192908e9060ff8616908110611873576118736125d8565b60200260200101516001600160a01b03166001600160a01b031681526020019081526020015f205f6101000a81548160ff021916908315150217905550816003018b8260ff16815181106118c9576118c96125d8565b60209081029190910181015182546001810184555f93845291832090910180546001600160a01b0319166001600160a01b039092169190911790558b51600491908d9060ff851690811061191f5761191f6125d8565b6020908102919091018101516001600160a01b03168252818101929092526040015f90812080546001810182559082529190200183905580611960816125ec565b91505061173c565b50335f9081526003602090815260408220805460018101825590835290822001839055600880549161199983612426565b9190505550336001600160a01b0316827f595ce487888556d1f7a753a023acc7257fa8a53e8225af0b2a5d6bb02102eeb48d8a8a8a8e6040516119e095949392919061260a565b60405180910390a35090506119f460015f55565b98975050505050505050565b5f8260075481108015611a1257505f81115b611a2e5760405162461bcd60e51b81526004016105d6906123e4565b50505f9182526006602090815260408084206001600160a01b0393909316845291905290205460ff1690565b5f8080808060015b600754811015611ae1575f8181526002602052604090206008015462010000900460ff16611ad9575f8181526002602052604090206004015461010090046001600160a01b0316611acb575f81815260026020526040902060050154611ac890846124bf565b92505b81611ad581612426565b9250505b600101611a62565b506008549591945092509050565b6004602052815f5260405f208181548110611468575f80fd5b5f8160075481108015611b1a57505f81115b611b365760405162461bcd60e51b81526004016105d6906123e4565b5f838152600260205260409020600881015460ff1615611b5e57600701544310159150611449565b600601544210159150611449565b611b74611c84565b6001600160a01b038116611bbe5760405162461bcd60e51b8152602060048201526011602482015270125b9d985b1a59081c9958da5c1a595b9d607a1b60448201526064016105d6565b600b80546001600160a01b0319166001600160a01b0392909216919091179055565b6001600160a01b0381165f90815260036020908152604091829020805483518184028101840190945280845260609392830182828015610d4457602002820191905f5260205f2090815481526020019060010190808311610d305750505050509050919050565b611c4f611c84565b6001600160a01b038116611c7857604051631e4fbdf760e01b81525f60048201526024016105d6565b611c8181611d38565b50565b6001546001600160a01b031633146110ed5760405163118cdaa760e01b81523360048201526024016105d6565b60025f5403611cd357604051633ee5aeb560e01b815260040160405180910390fd5b60025f55565b6040516001600160a01b03838116602483015260448201839052610c8491859182169063a9059cbb906064015b604051602081830303815290604052915060e01b6020820180516001600160e01b038381831617835250505050611e53565b600180546001600160a01b038381166001600160a01b0319831681179093556040519116919082907f8be0079c531659141344cd1fd0a4f28419497f9722a3daafe3b4186f6b6457e0905f90a35050565b6001600160a01b038216611de6578034146110d85760405162461bcd60e51b815260206004820152601d60248201527f496e636f7272656374206e617469766520746f6b656e20616d6f756e7400000060448201526064016105d6565b3415611e3e5760405162461bcd60e51b815260206004820152602160248201527f4e6f206e617469766520746f6b656e73206e656564656420666f7220455243326044820152600360fc1b60648201526084016105d6565b6110d86001600160a01b038316333084611ec5565b5f5f60205f8451602086015f885af180611e72576040513d5f823e3d81fd5b50505f513d91508115611e89578060011415611e96565b6001600160a01b0384163b155b15611ebf57604051635274afe760e01b81526001600160a01b03851660048201526024016105d6565b50505050565b6040516001600160a01b038481166024830152838116604483015260648201839052611ebf9186918216906323b872dd90608401611d06565b5f60208284031215611f0e575f5ffd5b5035919050565b6001600160a01b0381168114611c81575f5ffd5b5f5f60408385031215611f3a575f5ffd5b823591506020830135611f4c81611f15565b809150509250929050565b8035611f6281611f15565b919050565b5f60208284031215611f77575f5ffd5b8135611f8281611f15565b9392505050565b602080825282518282018190525f918401906040840190835b81811015611fc0578351835260209384019390920191600101611fa2565b509095945050505050565b5f81518084528060208401602086015e5f602082860101526020601f19601f83011685010191505092915050565b8d81526101a060208201525f6120136101a083018f611fcb565b6001600160a01b039d8e16604084015260ff9c909c1660608301525098909a16608089015260a088019690965260c087019490945260e0860192909252151561010085015215156101208401521515610140830152610160820152610180019190915292915050565b5f8151808452602084019350602083015f5b828110156120b55781516001600160a01b031686526020958601959091019060010161208e565b5093949350505050565b60208152815160208201525f60208301516101c060408401526120e66101e0840182611fcb565b9050604084015161210260608501826001600160a01b03169052565b506060840151838203601f1901608085015261211e828261207c565b915050608084015161213560a085018260ff169052565b5060a08401516001600160a01b03811660c08501525060c084015160e084015260e084015161010084015261010084015161012084015261012084015161218161014085018215159052565b5061014084015180151561016085015250610160840151801515610180850152506101808401516101a08401526101a08401516101c08401528091505092915050565b5f5f604083850312156121d5575f5ffd5b82356121e081611f15565b946020939093013593505050565b634e487b7160e01b5f52604160045260245ffd5b604051601f8201601f1916810167ffffffffffffffff8111828210171561222b5761222b6121ee565b604052919050565b5f82601f830112612242575f5ffd5b813567ffffffffffffffff81111561225c5761225c6121ee565b8060051b61226c60208201612202565b91825260208185018101929081019086841115612287575f5ffd5b6020860192505b838310156122b25782356122a181611f15565b82526020928301929091019061228e565b9695505050505050565b803560ff81168114611f62575f5ffd5b80358015158114611f62575f5ffd5b5f5f5f5f5f5f5f5f610100898b0312156122f3575f5ffd5b883567ffffffffffffffff811115612309575f5ffd5b8901601f81018b13612319575f5ffd5b803567ffffffffffffffff811115612333576123336121ee565b612346601f8201601f1916602001612202565b8181528c602083850101111561235a575f5ffd5b816020840160208301375f60208383010152809a50505050602089013567ffffffffffffffff81111561238b575f5ffd5b6123978b828c01612233565b9750506123a660408a016122bc565b95506123b460608a016122cc565b94506123c260808a01611f57565b979a969950949793969560a0850135955060c08501359460e001359350915050565b60208082526014908201527315985d5b1d08191bd95cc81b9bdd08195e1a5cdd60621b604082015260600190565b634e487b7160e01b5f52601160045260245ffd5b5f6001820161243757612437612412565b5060010190565b808202811582820484141761245557612455612412565b92915050565b5f8261247557634e487b7160e01b5f52601260045260245ffd5b500490565b8181038181111561245557612455612412565b600181811c908216806124a157607f821691505b60208210810361144957634e487b7160e01b5f52602260045260245ffd5b8082018082111561245557612455612412565b601f821115610c8457805f5260205f20601f840160051c810160208510156124f75750805b601f840160051c820191505b81811015612516575f8155600101612503565b5050505050565b815167ffffffffffffffff811115612537576125376121ee565b61254b81612545845461248d565b846124d2565b6020601f82116001811461257d575f83156125665750848201515b5f19600385901b1c1916600184901b178455612516565b5f84815260208120601f198516915b828110156125ac578785015182556020948501946001909201910161258c565b50848210156125c957868401515f19600387901b60f8161c191681555b50505050600190811b01905550565b634e487b7160e01b5f52603260045260245ffd5b5f60ff821660ff810361260157612601612412565b60010192915050565b60a081525f61261c60a0830188611fcb565b6001600160a01b039690961660208301525060408101939093526060830191909152151560809091015291905056fea264697066735822122032daec74f581cd88e2e73aef637884952685c417ef8c6ad67c9baaa29becc6b364736f6c634300081c0033",
  "linkReferences": {},
  "deployedLinkReferences": {},
  "immutableReferences": {},
  "inputSourceName": "project/contracts/ChronoVault.sol",
  "buildInfoId": "solc-0_8_28-4d95ce582faad42da9174116613771f79313ea2d"
}