{
  "_format": "hh3-artifact-1",
  "contractName": "SomniaBook",
  "sourceName": "contracts/SomniaBook.sol",
  "abi": [
    {
      "inputs": [
        {
          "internalType": "address",
          "name": "_feeRecipient",
          "type": "address"
        }
      ],
      "stateMutability": "nonpayable",
      "type": "constructor"
    },
    {
      "inputs": [
        {
          "internalType": "address",
          "name": "owner",
          "type": "address"
        }
      ],
      "name": "OwnableInvalidOwner",
      "type": "error"
    },
    {
      "inputs": [
        {
          "internalType": "address",
          "name": "account",
          "type": "address"
        }
      ],
      "name": "OwnableUnauthorizedAccount",
      "type": "error"
    },
    {
      "inputs": [],
      "name": "ReentrancyGuardReentrantCall",
      "type": "error"
    },
    {
      "anonymous": false,
      "inputs": [
        {
          "indexed": true,
          "internalType": "bytes32",
          "name": "betId",
          "type": "bytes32"
        },
        {
          "indexed": false,
          "internalType": "uint256",
          "name": "refund",
          "type": "uint256"
        }
      ],
      "name": "BetCancelled",
      "type": "event"
    },
    {
      "anonymous": false,
      "inputs": [
        {
          "indexed": true,
          "internalType": "bytes32",
          "name": "betId",
          "type": "bytes32"
        },
        {
          "indexed": true,
          "internalType": "address",
          "name": "user",
          "type": "address"
        },
        {
          "indexed": false,
          "internalType": "uint256",
          "name": "amount",
          "type": "uint256"
        },
        {
          "indexed": false,
          "internalType": "uint256",
          "name": "odds",
          "type": "uint256"
        }
      ],
      "name": "BetPlaced",
      "type": "event"
    },
    {
      "anonymous": false,
      "inputs": [
        {
          "indexed": true,
          "internalType": "bytes32",
          "name": "betId",
          "type": "bytes32"
        },
        {
          "indexed": false,
          "internalType": "bool",
          "name": "won",
          "type": "bool"
        },
        {
          "indexed": false,
          "internalType": "uint256",
          "name": "payout",
          "type": "uint256"
        }
      ],
      "name": "BetResolved",
      "type": "event"
    },
    {
      "anonymous": false,
      "inputs": [
        {
          "indexed": true,
          "internalType": "address",
          "name": "previousOwner",
          "type": "address"
        },
        {
          "indexed": true,
          "internalType": "address",
          "name": "newOwner",
          "type": "address"
        }
      ],
      "name": "OwnershipTransferred",
      "type": "event"
    },
    {
      "inputs": [
        {
          "internalType": "bytes32",
          "name": "",
          "type": "bytes32"
        }
      ],
      "name": "bets",
      "outputs": [
        {
          "internalType": "address",
          "name": "user",
          "type": "address"
        },
        {
          "internalType": "uint96",
          "name": "amount",
          "type": "uint96"
        },
        {
          "internalType": "uint96",
          "name": "odds",
          "type": "uint96"
        },
        {
          "internalType": "uint32",
          "name": "timestamp",
          "type": "uint32"
        },
        {
          "internalType": "uint8",
          "name": "status",
          "type": "uint8"
        }
      ],
      "stateMutability": "view",
      "type": "function"
    },
    {
      "inputs": [
        {
          "internalType": "bytes32[]",
          "name": "_betIds",
          "type": "bytes32[]"
        }
      ],
      "name": "cancelBets",
      "outputs": [],
      "stateMutability": "nonpayable",
      "type": "function"
    },
    {
      "inputs": [
        {
          "internalType": "bytes32",
          "name": "_betId",
          "type": "bytes32"
        }
      ],
      "name": "claimWinnings",
      "outputs": [],
      "stateMutability": "nonpayable",
      "type": "function"
    },
    {
      "inputs": [],
      "name": "emergencyWithdraw",
      "outputs": [],
      "stateMutability": "nonpayable",
      "type": "function"
    },
    {
      "inputs": [],
      "name": "feeRecipient",
      "outputs": [
        {
          "internalType": "address",
          "name": "",
          "type": "address"
        }
      ],
      "stateMutability": "view",
      "type": "function"
    },
    {
      "inputs": [
        {
          "internalType": "bytes32",
          "name": "_betId",
          "type": "bytes32"
        }
      ],
      "name": "getBet",
      "outputs": [
        {
          "internalType": "address",
          "name": "user",
          "type": "address"
        },
        {
          "internalType": "uint256",
          "name": "amount",
          "type": "uint256"
        },
        {
          "internalType": "uint256",
          "name": "odds",
          "type": "uint256"
        },
        {
          "internalType": "uint256",
          "name": "timestamp",
          "type": "uint256"
        },
        {
          "internalType": "uint8",
          "name": "status",
          "type": "uint8"
        }
      ],
      "stateMutability": "view",
      "type": "function"
    },
    {
      "inputs": [
        {
          "internalType": "address",
          "name": "_user",
          "type": "address"
        }
      ],
      "name": "getUserBets",
      "outputs": [
        {
          "internalType": "bytes32[]",
          "name": "",
          "type": "bytes32[]"
        }
      ],
      "stateMutability": "view",
      "type": "function"
    },
    {
      "inputs": [],
      "name": "maxBetAmount",
      "outputs": [
        {
          "internalType": "uint96",
          "name": "",
          "type": "uint96"
        }
      ],
      "stateMutability": "view",
      "type": "function"
    },
    {
      "inputs": [],
      "name": "minBetAmount",
      "outputs": [
        {
          "internalType": "uint96",
          "name": "",
          "type": "uint96"
        }
      ],
      "stateMutability": "view",
      "type": "function"
    },
    {
      "inputs": [],
      "name": "owner",
      "outputs": [
        {
          "internalType": "address",
          "name": "",
          "type": "address"
        }
      ],
      "stateMutability": "view",
      "type": "function"
    },
    {
      "inputs": [
        {
          "internalType": "uint256",
          "name": "_odds",
          "type": "uint256"
        }
      ],
      "name": "placeBet",
      "outputs": [
        {
          "internalType": "bytes32",
          "name": "betId",
          "type": "bytes32"
        }
      ],
      "stateMutability": "payable",
      "type": "function"
    },
    {
      "inputs": [],
      "name": "platformFee",
      "outputs": [
        {
          "internalType": "uint16",
          "name": "",
          "type": "uint16"
        }
      ],
      "stateMutability": "view",
      "type": "function"
    },
    {
      "inputs": [],
      "name": "renounceOwnership",
      "outputs": [],
      "stateMutability": "nonpayable",
      "type": "function"
    },
    {
      "inputs": [
        {
          "internalType": "bytes32[]",
          "name": "_betIds",
          "type": "bytes32[]"
        },
        {
          "internalType": "bool",
          "name": "_won",
          "type": "bool"
        }
      ],
      "name": "resolveBets",
      "outputs": [],
      "stateMutability": "nonpayable",
      "type": "function"
    },
    {
      "inputs": [
        {
          "internalType": "uint96",
          "name": "_minBet",
          "type": "uint96"
        },
        {
          "internalType": "uint96",
          "name": "_maxBet",
          "type": "uint96"
        }
      ],
      "name": "setBetLimits",
      "outputs": [],
      "stateMutability": "nonpayable",
      "type": "function"
    },
    {
      "inputs": [
        {
          "internalType": "uint16",
          "name": "_fee",
          "type": "uint16"
        }
      ],
      "name": "setPlatformFee",
      "outputs": [],
      "stateMutability": "nonpayable",
      "type": "function"
    },
    {
      "inputs": [],
      "name": "totalBetsPlaced",
      "outputs": [
        {
          "internalType": "uint32",
          "name": "",
          "type": "uint32"
        }
      ],
      "stateMutability": "view",
      "type": "function"
    },
    {
      "inputs": [],
      "name": "totalFeesCollected",
      "outputs": [
        {
          "internalType": "uint256",
          "name": "",
          "type": "uint256"
        }
      ],
      "stateMutability": "view",
      "type": "function"
    },
    {
      "inputs": [
        {
          "internalType": "address",
          "name": "newOwner",
          "type": "address"
        }
      ],
      "name": "transferOwnership",
      "outputs": [],
      "stateMutability": "nonpayable",
      "type": "function"
    },
    {
      "inputs": [
        {
          "internalType": "address",
          "name": "",
          "type": "address"
        },
        {
          "internalType": "uint256",
          "name": "",
          "type": "uint256"
        }
      ],
      "name": "userBets",
      "outputs": [
        {
          "internalType": "bytes32",
          "name": "",
          "type": "bytes32"
        }
      ],
      "stateMutability": "view",
      "type": "function"
    },
    {
      "inputs": [],
      "name": "withdrawFees",
      "outputs": [],
      "stateMutability": "nonpayable",
      "type": "function"
    },
    {
      "stateMutability": "payable",
      "type": "receive"
    }
  ],
  "bytecode": "0x6080604052600480546001600160d01b031916758ac7230489e800000000000000038d7ea4c6800000fa179055348015610037575f5ffd5b5060405161158c38038061158c8339810160408190526100569161014a565b60015f55338061008057604051631e4fbdf760e01b81525f60048201526024015b60405180910390fd5b610089816100f9565b506001600160a01b0381166100d45760405162461bcd60e51b8152602060048201526011602482015270125b9d985b1a59081c9958da5c1a595b9d607a1b6044820152606401610077565b600580546001600160a01b0319166001600160a01b0392909216919091179055610177565b600180546001600160a01b038381166001600160a01b0319831681179093556040519116919082907f8be0079c531659141344cd1fd0a4f28419497f9722a3daafe3b4186f6b6457e0905f90a35050565b5f6020828403121561015a575f5ffd5b81516001600160a01b0381168114610170575f5ffd5b9392505050565b611408806101845f395ff3fe608060405260043610610129575f3560e01c8063715018a6116100a8578063c902c3ae1161006d578063c902c3ae14610366578063cab11d5d1461041a578063db2e21bc14610458578063e49b606c1461046c578063f2fde38b1461048b578063fa968eea146104aa575f5ffd5b8063715018a6146102d8578063741c141a146102ec5780638068aa681461030b5780638da5cb5b1461032a5780639c98f79814610347575f5ffd5b8063446ba422116100ee578063446ba422146102385780634690484014610259578063476343ee146102905780635cbc742c146102a457806360c6d8ae146102c3575f5ffd5b806304fc9d7c1461013457806310fe7c481461016a57806326232a2e1461018b5780632d56657d146101b857806337e8c09e146101e4575f5ffd5b3661013057005b5f5ffd5b34801561013f575f5ffd5b506007546101509063ffffffff1681565b60405163ffffffff90911681526020015b60405180910390f35b61017d610178366004611102565b6104cf565b604051908152602001610161565b348015610196575f5ffd5b506004546101a59061ffff1681565b60405161ffff9091168152602001610161565b3480156101c3575f5ffd5b506101d76101d236600461112f565b610748565b604051610161919061114f565b3480156101ef575f5ffd5b506102036101fe366004611102565b6107b1565b604080516001600160a01b039096168652602086019490945292840191909152606083015260ff16608082015260a001610161565b348015610243575f5ffd5b506102576102523660046111a7565b610848565b005b348015610264575f5ffd5b50600554610278906001600160a01b031681565b6040516001600160a01b039091168152602001610161565b34801561029b575f5ffd5b506102576108ea565b3480156102af575f5ffd5b506102576102be3660046111d8565b6109d1565b3480156102ce575f5ffd5b5061017d60065481565b3480156102e3575f5ffd5b50610257610a36565b3480156102f7575f5ffd5b50610257610306366004611241565b610a49565b348015610316575f5ffd5b5061017d610325366004611298565b610b68565b348015610335575f5ffd5b506001546001600160a01b0316610278565b348015610352575f5ffd5b506102576103613660046112c0565b610b93565b348015610371575f5ffd5b506103d2610380366004611102565b60026020525f9081526040902080546001909101546001600160a01b03821691600160a01b90046001600160601b039081169190811690600160601b810463ffffffff1690600160801b900460ff1685565b604080516001600160a01b039690961686526001600160601b039485166020870152929093169184019190915263ffffffff16606083015260ff16608082015260a001610161565b348015610425575f5ffd5b5060045461044090600160701b90046001600160601b031681565b6040516001600160601b039091168152602001610161565b348015610463575f5ffd5b50610257610d2b565b348015610477575f5ffd5b50610257610486366004611102565b610dd9565b348015610496575f5ffd5b506102576104a536600461112f565b611022565b3480156104b5575f5ffd5b50600454610440906201000090046001600160601b031681565b5f6104d861105c565b6004546201000090046001600160601b0316341080159061050b5750600454600160701b90046001600160601b03163411155b61054d5760405162461bcd60e51b815260206004820152600e60248201526d125b9d985b1a5908185b5bdd5b9d60921b60448201526064015b60405180910390fd5b6103e882101561058e5760405162461bcd60e51b815260206004820152600c60248201526b496e76616c6964206f64647360a01b6044820152606401610544565b6007546040513360601b6bffffffffffffffffffffffff1916602082015234603482015242605482015260e09190911b6001600160e01b031916607482015260780160408051601f19818403018152828252805160209182012060a084018352338085526001600160601b0334811686850190815288821687870190815263ffffffff42811660608a019081525f60808b0181815288825260028a528a82209b5195518716600160a01b026001600160a01b0396909616959095178b55925160019a8b0180549251955160ff16600160801b0260ff60801b19968516600160601b026fffffffffffffffffffffffffffffffff19909416929097169190911791909117939093169390931790915591825260038452938120805495860181558152918220909301839055600780549394509290911691906106ce83611313565b91906101000a81548163ffffffff021916908363ffffffff16021790555050336001600160a01b0316817fc9621b1db612fa52c8213099eb7c450b407922963a8c63ee6bfe963404f459973485604051610732929190918252602082015260400190565b60405180910390a361074360015f55565b919050565b6001600160a01b0381165f908152600360209081526040918290208054835181840281018401909452808452606093928301828280156107a557602002820191905f5260205f20905b815481526020019060010190808311610791575b50505050509050919050565b5f81815260026020526040812054819081908190819086906001600160a01b03166107ee5760405162461bcd60e51b815260040161054490611337565b5050505f93845250506002602052506040902080546001909101546001600160a01b03821692600160a01b9092046001600160601b039081169290821691600160601b810463ffffffff1691600160801b90910460ff1690565b610850611084565b806001600160601b0316826001600160601b0316106108a25760405162461bcd60e51b815260206004820152600e60248201526d496e76616c6964206c696d69747360901b6044820152606401610544565b6004805462010000600160d01b031916620100006001600160601b03948516026bffffffffffffffffffffffff60701b191617600160701b9290931691909102919091179055565b6108f2611084565b5f6006541161092d5760405162461bcd60e51b81526020600482015260076024820152664e6f206665657360c81b6044820152606401610544565b600680545f918290556005546040519192916001600160a01b039091169083908381818185875af1925050503d805f8114610983576040519150601f19603f3d011682016040523d82523d5f602084013e610988565b606091505b50509050806109cd5760405162461bcd60e51b815260206004820152601160248201527015da5d1a191c985dd85b0819985a5b1959607a1b6044820152606401610544565b5050565b6109d9611084565b6103e88161ffff161115610a1e5760405162461bcd60e51b815260206004820152600c60248201526b08ccaca40e8dede40d0d2ced60a31b6044820152606401610544565b6004805461ffff191661ffff92909216919091179055565b610a3e611084565b610a475f6110b1565b565b610a51611084565b815f82610a5f576002610a62565b60015b90505f5b82811015610b60575f60025f888885818110610a8457610a8461135c565b602090810292909201358352508101919091526040015f2080549091506001600160a01b031615801590610ac457506001810154600160801b900460ff16155b610ae05760405162461bcd60e51b815260040161054490611337565b60018101805460ff60801b1916600160801b60ff861602179055868683818110610b0c57610b0c61135c565b905060200201357f8227038bdb0e31152e75067d8e86fe557ebe8da19d57092491e8b1abd188fa8f865f604051610b4f9291909115158252602082015260400190565b60405180910390a250600101610a66565b505050505050565b6003602052815f5260405f208181548110610b81575f80fd5b905f5260205f20015f91509150505481565b610b9b611084565b805f5b81811015610d25575f848483818110610bb957610bb961135c565b602090810292909201355f818152600290935260409092208054929350916001600160a01b03161580159150610bfb57506001810154600160801b900460ff16155b610c175760405162461bcd60e51b815260040161054490611337565b60018101805460ff60801b1916600360801b17905580546040515f916001600160a01b03811691600160a01b9091046001600160601b0316905f6040518083038185875af1925050503d805f8114610c8a576040519150601f19603f3d011682016040523d82523d5f602084013e610c8f565b606091505b5050905080610cd05760405162461bcd60e51b815260206004820152600d60248201526c1499599d5b990819985a5b1959609a1b6044820152606401610544565b8154604051600160a01b9091046001600160601b0316815283907f31f47b0552dd5594214574701b7142018dd128e3b95d0b58812febfbc4e6fddc9060200160405180910390a2836001019350505050610b9e565b50505050565b610d33611084565b5f610d466001546001600160a01b031690565b6001600160a01b0316476040515f6040518083038185875af1925050503d805f8114610d8d576040519150601f19603f3d011682016040523d82523d5f602084013e610d92565b606091505b5050905080610dd65760405162461bcd60e51b815260206004820152601060248201526f115b595c99d95b98de4819985a5b195960821b6044820152606401610544565b50565b610de161105c565b5f8181526002602052604090205481906001600160a01b0316610e165760405162461bcd60e51b815260040161054490611337565b5f8281526002602052604090205482906001600160a01b03163314610e695760405162461bcd60e51b81526020600482015260096024820152682737ba1037bbb732b960b91b6044820152606401610544565b5f838152600260205260409020600180820154600160801b900460ff1614610ec25760405162461bcd60e51b815260206004820152600c60248201526b43616e6e6f7420636c61696d60a01b6044820152606401610544565b600181018054600160821b60ff60801b1982161790915581545f916103e891610efe916001600160601b0390811691600160a01b900416611370565b610f08919061138d565b6004549091505f9061271090610f229061ffff1684611370565b610f2c919061138d565b90505f610f3982846113ac565b90508160065f828254610f4c91906113bf565b90915550506040515f90339083908381818185875af1925050503d805f8114610f90576040519150601f19603f3d011682016040523d82523d5f602084013e610f95565b606091505b5050905080610fd65760405162461bcd60e51b815260206004820152600d60248201526c14185e5bdd5d0819985a5b1959609a1b6044820152606401610544565b60408051600181526020810184905289917f8227038bdb0e31152e75067d8e86fe557ebe8da19d57092491e8b1abd188fa8f910160405180910390a250505050505050610dd660015f55565b61102a611084565b6001600160a01b03811661105357604051631e4fbdf760e01b81525f6004820152602401610544565b610dd6816110b1565b60025f540361107e57604051633ee5aeb560e01b815260040160405180910390fd5b60025f55565b6001546001600160a01b03163314610a475760405163118cdaa760e01b8152336004820152602401610544565b600180546001600160a01b038381166001600160a01b0319831681179093556040519116919082907f8be0079c531659141344cd1fd0a4f28419497f9722a3daafe3b4186f6b6457e0905f90a35050565b5f60208284031215611112575f5ffd5b5035919050565b80356001600160a01b0381168114610743575f5ffd5b5f6020828403121561113f575f5ffd5b61114882611119565b9392505050565b602080825282518282018190525f918401906040840190835b81811015611186578351835260209384019390920191600101611168565b509095945050505050565b80356001600160601b0381168114610743575f5ffd5b5f5f604083850312156111b8575f5ffd5b6111c183611191565b91506111cf60208401611191565b90509250929050565b5f602082840312156111e8575f5ffd5b813561ffff81168114611148575f5ffd5b5f5f83601f840112611209575f5ffd5b50813567ffffffffffffffff811115611220575f5ffd5b6020830191508360208260051b850101111561123a575f5ffd5b9250929050565b5f5f5f60408486031215611253575f5ffd5b833567ffffffffffffffff811115611269575f5ffd5b611275868287016111f9565b9094509250506020840135801515811461128d575f5ffd5b809150509250925092565b5f5f604083850312156112a9575f5ffd5b6112b283611119565b946020939093013593505050565b5f5f602083850312156112d1575f5ffd5b823567ffffffffffffffff8111156112e7575f5ffd5b6112f3858286016111f9565b90969095509350505050565b634e487b7160e01b5f52601160045260245ffd5b5f63ffffffff821663ffffffff810361132e5761132e6112ff565b60010192915050565b6020808252600b908201526a125b9d985b1a590818995d60aa1b604082015260600190565b634e487b7160e01b5f52603260045260245ffd5b8082028115828204841417611387576113876112ff565b92915050565b5f826113a757634e487b7160e01b5f52601260045260245ffd5b500490565b81810381811115611387576113876112ff565b80820180821115611387576113876112ff56fea264697066735822122061200f4c200583fd97507774aac324c89c2daa5103f14140b72bbc0f9fe991ac64736f6c634300081c0033",
  "linkReferences": {},
  "deployedLinkReferences": {},
  "immutableReferences": {},
  "inputSourceName": "project/contracts/SomniaBook.sol",
  "buildInfoId": "solc-0_8_28-bbe54860720f742c2e85a7ef49d0ae0c7f25d3c3"
}